:020000040800F2
:1000000088080020F1390008DD020008DF0200083E
:10001000E3020008E7020008EB020008000000000D
:10002000000000000000000000000000EF020008D7
:10003000F102000800000000F3020008F5020008C9
:100040000B3A00080B3A00080B3A00080B3A00087C
:100050000B3A00080B3A00080B3A00080B3A00086C
:100060000B3A00080B3A00080B3A00080B3A00085C
:100070000B3A00080B3A00080B3A00080B3A00084C
:100080000B3A00080B3A00080B3A00080B3A00083C
:100090000B3A00080B3A00080B3A00080B3A00082C
:1000A0000B3A00080B3A00080B3A00080B3A00081C
:1000B0001B480008554800080B3A00080B3A000896
:1000C0000B3A00080B3A00080B3A00080B3A0008FC
:1000D0000B3A0008FD4000085B4200080B3A00089C
:1000E0000B3A00080B3A00080B3A0008DFF80CD076
:1000F00005F0F2F8004800473702000888080020A1
:1001000010B566480078F8B1654800786349097809
:10011000884219D0614800786149087061480078C8
:10012000142802DD01205F4908705E48007800F065
:100130009EF95C4801785CA005F000F95948007808
:10014000401C5849087009E055480078534909781F
:10015000884203D0514800785149087010BD10B54D
:100160005748007857490978884248D0012440E030
:1001700004EBC400544901EB800080780A2836DB88
:10018000002004EBC401504A02F8210004EBC40132
:1001900002EB8101887004EBC40102EB81018861EC
:1001A000002104EBC40002EB8000C16104EBC40039
:1001B00002EB80000162002004EBC40102EB81012C
:1001C000C87004EBC40102EB8101487104EBC40167
:1001D00002EB8101087104EBC40102EB810148705C
:1001E00004EBC40102EB8100242105F038F8601C07
:1001F000C4B2142CBCDD334800783149087010BDFE
:1002000010B500F00DF9642004F0D4FF10BD08B55E
:100210000CE00121684604F0B1FB9DF800102B486A
:1002200000F04AFA10B1294800F0E3FB04F0DFFBCC
:100230000028EED108BD04F031FF2DE0FFF7E7FF05
:1002400023480078072826D2DFE800F00405090FCC
:100250001E23240000BF02201D4908701BE0FFF789
:10026000CFFF03201A49087015E01A48007818B922
:1002700002201749087006E017480078012802D1CB
:1002800004201349087006E0FFF769FFFFF738FF05
:1002900001E000E000BF00BFD0E700000000002048
:1002A00006000020070000202067657474696E67EF
:1002B0002064617461206E6F646520256400000015
:1002C0000500002002000020A40000207C00002087
:1002D000040000200300002001000020704700BF40
:1002E000FEE700BFFEE700BFFEE700BFFEE7704786
:1002F000704770477047000003463948006818602F
:100300003748001D006808603548083000681060F4
:10031000186818B9086808B9106808B10120704752
:100320000020FCE73EB502AA01A96846FFF7E4FFFA
:1003300040B10C21684600F05DF800F00F0414B9DC
:10034000012400E0012420463EBD2648264948609D
:1003500026484860704700BF2348C06808B901209C
:1003600000E0002010F0010FF6D11F48006940F0B6
:1003700080001D490861704710B501E004F0E4FEFB
:100380001948C06810F0010FF8D110BD10B5034630
:10039000002003F1006303E013F8014B0C54401CF0
:1003A0009042F9D310BD70B504460D4600F041FFF0
:1003B000342001F0D3F94FF0006000F079FF0C49D0
:1003C000087008460078042806D104F10060294628
:1003D00001F03EF80649087000F038FF70BD0000DB
:1003E000E8F7FF1F2301674500200240AB89EFCDEE
:1003F0000800002030B50246002000230BE012F870
:10040000015B85EA2024E4B2044D35F8144084EA07
:100410000024A0B25B1C8B42F1D330BD3C560008D7
:1004200010B5FE20FE490870022048705620C870A2
:100430000020FC490880FC48F94909680160F94935
:10044000098881800221001DFFF7D4FFF6498871D9
:100450000221F548001DFFF7CDFF0012F249C871D7
:10046000EF2008720921F04803F03AFE10BD10B5E4
:100470000446FE20ED490870032048705120C870E2
:10048000EB4804700020EA49A1F80100E948E74977
:1004900009680160E6490A888280897881710321B0
:1004A000001DFFF7A7FFE349C8710321E148001DC4
:1004B000FFF7A0FF0012DF490872EF20487204EB3B
:1004C000C400DD4901EB80008078401C04EBC401CE
:1004D000D94A02EB810188700A21D64803F000FE58
:1004E00010BD2DE9F04104460D4616461F46FE207C
:1004F000D249087009204870002088705220C870C6
:10050000CF4804700020CE49487008468570C670F8
:1005100007710020C1F80500CA48C8490968016090
:10052000C7490A6842604A688260097A01730921F2
:10053000001DFFF75FFFC34948730921C148001D33
:10054000FFF758FF0012BF498873EF20C8731021CE
:10055000BC4803F0C5FDBDE8F08170B504460D460A
:100560001646FE20B84908700F2048700020887099
:100570005320C8700020B54908700846C0F80140F3
:10058000C0F80550C0F80960B148AF49096801607A
:100590000F22AE49001D04F049FE0F21AC48001D9A
:1005A000FFF728FFAA49C8740F21A948001DFFF7CB
:1005B00021FF0012A6490875EF2048751621A448AE
:1005C00003F08EFD70BD2DE9F04104460D46164640
:1005D0001F46DDF81880FE209E4908700F204870E5
:1005E000002088705420C8709B480470C0F80150E7
:1005F000C0F80560C0F8097080F80D8000209649A9
:10060000887396489349096801600F229249001D3A
:1006100004F00CFE0F219148001DFFF7EBFE8F49FF
:10062000C8740F218D48001DFFF7E4FE00128B49AE
:100630000875EF2048751621884803F051FDBDE884
:10064000F0812DE9F04104460D4616461F46FE2076
:10065000834908700F204870002088705520C870AA
:1006600080480470C0F80150C0F80560C0F80970F7
:1006700000207C49A1F80D007B4879490968016098
:100680000F227849001D04F0D1FD0F217648001D8E
:10069000FFF7B0FE7449C8740F217348001DFFF7BF
:1006A000A9FE001270490875EF20487516216E48A2
:1006B00003F016FDBDE8F08170B505460C46002636
:1006C0006A48007809285CD2DFE800F005060E14BD
:1006D0001A203339430000BFFE2C04D164488470D3
:1006E00002206249087052E06148C47003205F49EB
:1006F00008704CE05E48047104205C49087046E0D4
:100700005B48447105205949087040E05948018808
:100710000088401C574A10805548801D4454801F53
:10072000C07811460988884202D106204F490870D6
:100730002DE04F48048007204C49087027E04C48C2
:10074000008840EA04204A49088008204749087088
:100750001DE0484801884648801DFFF74BFE44498C
:100760000988884207D1EF2C05D126224049284626
:1007700004F05CFD012600203E4908803B490870DA
:1007800005E000203B4908803849087000BF00BFE1
:10079000304670BD70471FB504460F22A11D684644
:1007A00004F044FD1FBD70B586B0054600260F223B
:1007B000A91D02A804F03AFD01202F49087000206D
:1007C0002E490870012466E004EBC4001A4901EBCD
:1007D00080008069DDF80910884259D104EBC4001B
:1007E000154901EB8000C169DDF80D0081424FD150
:1007F00004EBC400104901EB8000016ADDF8110030
:10080000814245D1002004EBC4010B4A02EB810177
:10081000887000260A200090DDF8113030E00000DA
:100820000A0000200E0000207403002010000020A9
:10083000140000207D030020A400002017000020E9
:1008400097030020870300201B000020B603002030
:10085000A00300201F000020DB030020C5030020B0
:100860002300002000040020EA0300202A000020CA
:100870000F040020280000200300002001000020B9
:10088000DDF80D20DDF809102046FFF79CFE04E09E
:100890000126601CC4B2142C96DD00BF012E40D18D
:1008A000002601243AE004EBC400634911F820005B
:1008B00028BB04EBC40001F82040DDF8090004EB7C
:1008C000C4015D4A02EB81018861DDF80D1004EB83
:1008D000C40002EB8000C161DDF8111004EBC4001C
:1008E00002EB8000016228200090DDF81130DDF875
:1008F0000D20DDF809102046FFF765FE10E0142CEE
:100900000AD10A200090DDF81130DDF80D20DDF865
:100910000910FF20FFF757FE601CC4B2142CC2DD83
:1009200000BF06B070BD70B586B00546D5F80600AC
:100930000390D5F80A000490A87B8DF814000124D8
:1009400052E004EBC4003C4911F820009DF80C1063
:10095000884247D1002004EBC401374A02EB8101F1
:1009600088709DF80E0004EBC40102EB8101C87091
:100970009DF80F0004EBC40102EB810108719DF8A2
:10098000100004EBC40102EB81014871012004EB6B
:10099000C40102EB8101487004EBC400114601EB75
:1009A0008000006A04EBC40102EB8101C96904EB19
:1009B000C402214B03EB82029269CDE9002102902F
:1009C00004EBC4001E4606EB8000837804EBC400F1
:1009D00006EB8000427804EBC40016F8201017A044
:1009E00004F0ACFC601CC4B2142CAADD06B070BDCF
:1009F000704710B5044660795138062819D2DFE8EF
:100A000000F003070B130F172046FFF7F1FF10E06C
:100A10002046FFF788FF0CE02046FFF7C4FE08E001
:100A20002046FFF7B8FE04E02046FFF7B3FE00E0E3
:100A300000BF00BF10BD7047A400002069643A20C9
:100A400025642073746174653A20256420626164B2
:100A50005F636E743A202564206D61633A202558E7
:100A60002D25582D2558200A00000000314901434A
:100A7000314A1160704770B5002100230F22C478FD
:100A80000CB32D4C246804F4E064C4F5E064210A3E
:100A9000C1F10403CA40447804FA03F18478144095
:100AA00021430901254C0678A155047804F01F055F
:100AB0000124AC4005786D114FF0E02606EB85056A
:100AC000C5F8004109E0047804F01F050124AC409A
:100AD0001B4D0678761145F8264070BD194A0A402C
:100AE0000243154B1B1F1A60704739B1124A121D81
:100AF00012680243104B1B1D1A6006E00E4A121DBD
:100B0000126882430C4B1B1D1A607047042808D1E1
:100B10004FF0E021096941F004014FF0E02211613A
:100B200007E04FF0E021096921F004014FF0E022D5
:100B3000116170470000FA050CED00E000E400E0F0
:100B400080E100E080FFFF1F10B50446FA488442B0
:100B500008D10121401501F077FB0021601501F05B
:100B600073FB17E0F548844208D10121001501F01C
:100B70006BFB0021201501F067FB0BE0F04884427D
:100B800008D10121C80301F05FFB00214FF40040B0
:100B900001F05AFB10BD30B502460020002350681A
:100BA000E84C20400D790C6844EA0524204350604D
:100BB0009068E54C2040D1E902542C434D7944EA39
:100BC000450420439060D06A20F470000C7C641EC1
:100BD000E4B2234340EA0350D06230BD00210160FB
:100BE000017141718160C16001210174704721B1BF
:100BF000826842F00102826003E0826822F0010212
:100C00008260704721B1826842F48072826003E0A2
:100C1000826822F480728260704710B50023CBB2E4
:100C20001AB144681C43446002E044689C43446039
:100C300010BD816841F008018160704701460020C5
:100C40008A6812F0080F01D0012000E000207047F0
:100C5000816841F0040181607047014600208A6884
:100C600012F0040F01D0012000E00020704721B1F4
:100C7000826842F4A002826003E0826822F4A0024B
:100C800082607047014600208A6812F4800F01D00C
:100C9000012000E00020704710B50A460021002323
:100CA000416821F46041531E41EA4331416010BD67
:100CB00021B1426842F40062426003E0426822F4DB
:100CC000006242607047F0B504460D4600200021E6
:100CD000092D11DDE068A5F10A0606EB4607072697
:100CE00006FA07F18843A5F10A0606EB460603FA61
:100CF00006F10843E0600CE0206905EB4507072694
:100D000006FA07F1884305EB450603FA06F10843A6
:100D10002061072A0FDA606B561E06EB86071F2636
:100D200006FA07F18843561E06EB860605FA06F119
:100D30000843606322E00D2A0FDA206BD61F06EB12
:100D400086071F2606FA07F18843D61F06EB86069C
:100D500005FA06F10843206310E0E06AA2F10D06EF
:100D600006EB86071F2606FA07F18843A2F10D0657
:100D700006EB860605FA06F10843E062F0BD21B1F4
:100D8000826842F48012826003E0826822F480125A
:100D9000826070470146C86C80B2704766484C302C
:100DA0000068704721B1426842F48062426003E00B
:100DB000426822F480624260704721B1426842F486
:100DC0008052426003E0426822F4805242607047E1
:100DD0000A460021816821F4E04111438160704797
:100DE00021B1826842F40042826003E0826822F40A
:100DF00000428260704721B1826842F40212826030
:100E000003E0826822F402128260704701460020EB
:100E10008A6812F4001F01D0012000E00020704712
:100E2000F0B504461546002000220026092911DDF0
:100E3000E068A1F10A0707EB470C072707FA0CF255
:100E40009043A1F10A0707EB470703FA07F21043A3
:100E5000E0600CE0206901EB410C072707FA0CF277
:100E6000904301EB410703FA07F210432061A06BA6
:100E7000C0F30156EF1C06F1010CA7EB0C0707EBC2
:100E8000870C1F2707FA0CF29043EF1C06F1010CA8
:100E9000A7EB0C0707EB870701FA07F21043A063E3
:100EA000F0BD10B50A4600210023816B21F44011EA
:100EB000531E41EA0351816310BD08B5002300931E
:100EC0000090009B0B440093009B1A6008BD08B57E
:100ED000024600200090009201F12800009B184477
:100EE00000900098006880B208BD0A460021416861
:100EF000164B19401143416070474162826270474E
:100F00000A460021416821F01F01114341607047EA
:100F100040B109490831096841F40001064A083224
:100F2000116007E004490831096821F40001024A10
:100F30000832116070470000002401400028014081
:100F4000003C0140FFFEF0FFFDF7F1FFFFFD3FFF1A
:100F50000246002013680B4201D0012000E000206F
:100F60007047CA430260704770B5024600200023F4
:100F700000240B125568CEB205EA060415681D421E
:100F800002D00CB1012000E0002070BD00220A1246
:100F9000D34303607047000001684FF6FE721140B2
:100FA00001600021016041608160C1608C4988421C
:100FB00008D18B490839496841F00F01884A083A3D
:100FC00051608AE086491431884208D18449083941
:100FD000496841F0F001824A083A51607DE0804959
:100FE0002831884208D17E490839496841F4706146
:100FF0007B4A083A516070E079493C31884208D117
:1010000077490839496841F47041754A083A516096
:1010100063E073495031884208D171490839496801
:1010200041F470216E4A083A516056E06C496431CF
:10103000884208D16A490839496841F47001684A10
:10104000083A516049E066497831884208D16449DC
:101050000839496841F07061614A083A51603CE0E2
:101060006049884206D1011F096841F00F01021F43
:10107000116032E05B491431884208D15949091F97
:10108000096841F0F001574A121F116025E05549E7
:101090002831884208D15349091F096841F4706119
:1010A000504A121F116018E04E493C31884208D165
:1010B0004C49091F096841F470414A4A121F1160E6
:1010C0000BE048495031884207D14649091F096859
:1010D00041F47021434A121F1160704710B500227D
:1010E000026847F6F0739A430C6A8B6823430C69D5
:1010F00023434C6923438C692343CC6923434C6AC3
:1011000023438C6A23431A430260CB6843600B6815
:1011100083604B68C36010BD002101604160816045
:10112000C160016141618161C161016241628162AD
:10113000704721B1026842F00102026004E00268D7
:101140004FF6FE731A40026070471AB103680B43F2
:10115000036002E003688B4303607047416070479F
:101160000146486880B2704701460020002211F015
:10117000805F03D01B4B083B1A6802E0184B083B0A
:101180001A680A4201D0012000E00020704710F0E8
:10119000805F03D01349091F086002E01049083935
:1011A0004860704701460020002211F0805F03D0A4
:1011B0000C4B083B1A6802E0094B083B1A680A42CC
:1011C00001D0012000E00020704710F0805F03D0C4
:1011D0000449091F086002E0014908394860704766
:1011E000080002400804024001460020FE4A106840
:1011F00000F03800084310607047FB49096821F08F
:101200000801F94A116011460968014311607047ED
:10121000F549096821F01001F34A11601146096887
:10122000014311607047F148EF494860F048486059
:101230007047EE48EC494860ED4848607047EA481E
:10124000006940F08000E84908617047E64800699D
:1012500040F08000E449086170470420E249C96811
:1012600011F0010F01D001200EE0DF49C96811F033
:10127000040F01D0022007E0DB49C96811F0100F0C
:1012800001D0032000E00420704700B5024604238B
:10129000FFF7E3FF034603E0FFF7DFFF0346521EBD
:1012A000012B01D1002AF7D102B90523184600BD50
:1012B00030B5044604254FF43020FFF7E6FF05461D
:1012C000042D17D1C848006940F00200C6490861E2
:1012D00008464461006940F0400008614FF4302046
:1012E000FFF7D3FF0546C048006941F6FD7108408D
:1012F000BD490861284630BD10B504244FF43020A4
:10130000FFF7C3FF0446042C16D1B748006940F02C
:101310000400B54908610846006940F040000861D2
:101320004FF43020FFF7B1FF0446AF48006941F6A3
:10133000FB710840AC490861204610BD00B502466B
:101340000423FFF78AFF034603E0FFF786FF034607
:10135000521E012B01D1002AF7D102B905231846EC
:1013600000BD10B504244FF43020FFF7E7FF04461A
:10137000042C16D19C48006940F004009A49086189
:101380000846006940F0400008614FF43020FFF744
:10139000D5FF04469448006941F6FB710840924924
:1013A0000861204610BD00208F49C96911F0020F65
:1013B00001D0012000E00020704730B5A5250424AD
:1013C000FFF7F1FF00B100254FF43020FFF75DFF7C
:1013D0000446042C3AD18548834988608448886053
:1013E0000846006940F0200008610846006940F0A6
:1013F000400008614FF43020FFF747FF0446042CFB
:101400001BD17948006941F6DF71084076490861CF
:101410000846006940F01000086176480580E00247
:10142000FFF733FF0446052C10D06F48006941F6E2
:10143000EF7108406C49086108E0052C06D06A4845
:10144000006941F6EF71084067490861204630BDE8
:1014500078B506460C46042500200090E802FFF708
:1014600014FF0546042D24D15F48006940F00100B7
:101470005D4908613480E802FFF707FF0546042D47
:1014800010D1B01C0090200C00990880E802FFF7F2
:10149000FCFE05465448006941F6FE710840524979
:1014A000086106E05048006941F6FE7108404E4967
:1014B0000861284678BD70B504460D460426F00242
:1014C000FFF7E3FE0646042E11D14748006940F0BD
:1014D0000100454908612580F002FFF7D6FE064667
:1014E0004148006941F6FE7108403F4908613046B5
:1014F00070BD70B505460E460424E002FFF7C5FE38
:101500000446042C17D13948374988603848886028
:101510000846006940F0100008612E80E002FFF7E5
:10152000B4FE0446052C06D02F48006941F6EF7141
:1015300008402D490861204670BD2DE9F04304465E
:101540004FF6FF763746B046B1460425E443E6B28F
:10155000C4F30727C4F307484FEA1469E802FFF70A
:1015600094FE0546042D49D120481F498860204833
:1015700088600846006940F010000861FF2E06D020
:101580001C4808300680E802FFF77FFE0546042D60
:1015900008D1FF2F06D017480A300780E802FFF76E
:1015A00074FE0546042D0AD1B8F1FF0F07D011488B
:1015B0000C30A0F80080E802FFF767FE0546042D16
:1015C0000AD1B9F1FF0F07D00A480E30A0F80090F9
:1015D000E802FFF75AFE0546052D0FD002480069C4
:1015E00041F6EF71084007E0002002402301674503
:1015F000AB89EFCD00F8FF1F664908612846BDE8BA
:10160000F08330B5054604244FF43020FFF73DFE4B
:101610000446042C41D160485E4988605F48886078
:101620000846006940F0200008610846006940F063
:10163000400008614FF43020FFF727FE0446042CD9
:1016400022D15448006941F6DF71084051490861D0
:101650000846006940F0100008611DB100205049A3
:10166000088002E0A5204E4908804FF43020FFF7A3
:101670000CFE0446052C10D04648006941F6EF7177
:1016800008404449086108E0052C06D0414800693B
:1016900041F6DF7108403F490861204630BDF0B592
:1016A00005460E46174604243B483A4988603B48A5
:1016B0008860E002FFF7E9FD0446042C19D13548A3
:1016C000006940F010003349086147F0F8003043EA
:1016D00028433349891C0880E002FFF7D6FD044601
:1016E000052C06D02B48006941F6EF7108402949C6
:1016F00008612046F0BD2748C0698008704725482A
:10170000006A704700202349096811F0200F01D0BA
:10171000012000E00020704729B11E4A12690243EF
:101720001C4B1A6104E01B4A12698243194B1A616F
:10173000704701460020012908D1164AD26912F0EB
:10174000010F01D0012008E0002006E0114AD26814
:101750000A4201D0012000E0002070470D49C86016
:10176000704704200B49C96811F0010F01D0012016
:101770000EE00849C96811F0040F01D0022007E00B
:101780000449C96811F0100F01D0032000E00420C3
:10179000704700000020024023016745AB89EFCD70
:1017A00000F8FF1F10B50446CA48844208D1012141
:1017B000042000F049FD0021042000F045FD46E032
:1017C000C548844208D10121082000F03DFD0021D8
:1017D000082000F039FD3AE0C048844208D10121D8
:1017E000102000F031FD0021102000F02DFD2EE032
:1017F000BB48844208D10121202000F025FD0021B2
:10180000202000F021FD22E0B648844208D10121C9
:10181000402000F019FD0021402000F015FD16E0E9
:10182000B148844208D10121802000F00DFD002143
:10183000802000F009FD0AE0AC48844207D1012174
:10184000801500F001FD0021A01500F0FDFC10BD89
:1018500010B50121084600F0F7FC0021012000F03E
:10186000F3FC10BD2DE9F0410246002500260020C2
:1018700000230024002791F803C00CF00F0591F815
:1018800003C01CF0100F03D091F802C04CEA05050C
:1018900091F800C0BCF1000F31D0146800202BE09B
:1018A0004FF0010C0CFA00F3B1F800C00CEA03068B
:1018B0009E4220D183004FF00F0C0CFA03F7BC437B
:1018C00005FA03FC4CEA040491F803C0BCF1280FAC
:1018D00006D14FF0010C0CFA00FCC2F814C00AE06B
:1018E00091F803C0BCF1480F05D14FF0010C0CFA80
:1018F00000FCC2F810C0401C0828D1D31460B1F815
:1019000000C0BCF1FF0F34DD546800202EE000F170
:10191000080C4FF0010808FA0CF3B1F800C00CEA0B
:1019200003069E4221D183004FF00F0C0CFA03F7FF
:10193000BC4305FA03FC4CEA040491F803C0BCF173
:10194000280F05D100F1080C08FA0CF8C2F8148031
:1019500091F803C0BCF1480F07D100F1080C4FF01B
:10196000010808FA0CF8C2F81080401C0828CED3F1
:101970005460BDE8F0814FF6FF7101800221817053
:101980000421C17070470246002093680B4201D0C9
:10199000012000E0002070470146886880B270474F
:1019A00002460020D3680B4201D0012000E0002055
:1019B00070470146C86880B2704701617047416155
:1019C00070470AB1016100E041617047C160704732
:1019D0004FF480320A438261816182618269826947
:1019E000704702460020424B18684FF6807318403B
:1019F00040EA021008433E4B186070473D49C861F9
:101A00007047F0B50A46002300240021002500F0AD
:101A10000046B6F1004F02D1354EF16901E0344E77
:101A20007168C0F3034583B200F44016B6F5401F59
:101A300008D121F070612E4E766826F070662C4F2A
:101A40007E6012E000F48016B6F5801F06D10326F2
:101A500006FA05F4A14341F0706106E0460D360137
:101A600003FA06F6B14341F0706122B1460D36012A
:101A700003FA06F6314300F00046B6F1004F02D1FA
:101A80001B4EF16101E01A4E7160F0BD30B50022CD
:101A90008B071C0F0F2303FA04F2154B08338C102D
:101AA00053F824309343124C08348D1044F82530F9
:101AB00023468C1053F824308C07240F00FA04F4CA
:101AC00023430B4C08348D1044F8253030BD0A49AF
:101AD0000860704700080140000C01400010014000
:101AE0000014014000180140001C0140002001408A
:101AF0000000014000002042DC00204210B50446F6
:101B0000F748844209D10121480500F0AAFB0021D1
:101B10004FF4001000F0A5FB08E00121880500F05B
:101B2000A0FB00214FF4800000F09BFB10BD2DE9CD
:101B3000F04385B004460D460026B1460427DFF881
:101B4000A483A6884FF6C0700640684600F0F5FAF8
:101B5000DDF80880E448B8FBF0F01FFA80F946EAA7
:101B60000906A68020884FF6FE71084020800026D6
:101B7000DE49286888420CD828684000B8FBF0F09D
:101B800087B2042F00DA04273E4309F101002084C4
:101B900027E0E888A0F53F41FF3906D1286800EB2F
:101BA0004000B8FBF0F087B209E0286800EBC00104
:101BB00001EB0010B8FBF0F087B247F4804738051E
:101BC000000D01D147F0010747F4004006434FF4F0
:101BD000967009FB00F04FF47A7190FBF1F0401C15
:101BE0002084A683208840F00100208026884FF6BC
:101BF000F5300640A8886989084306432680A889ED
:101C000029890843208105B0BDE8F08341F288317D
:101C10000160002181804BF6FF71C18000210181AC
:101C200041814FF480418181704721B1028842F0A7
:101C30000102028004E002884FF6FE731A4002801F
:101C4000704721B1828842F40062828004E0828879
:101C50004FF2FF731A408280704721B1828842F4AC
:101C60008052828004E082884EF6FF731A408280A0
:101C7000704721B1028842F48072028004E0028839
:101C80004FF6FF631A400280704721B1028842F488
:101C90000072028004E002884FF6FF531A4002806F
:101CA000704721B1028842F48062028004E0028819
:101CB0004FF6FF331A40028070470A46002181899F
:101CC0004FF60173194002F0FE03194381817047FA
:101CD00021B1828942F00102828104E082894FF6BB
:101CE000FE731A408281704721B1028842F040029F
:101CF000028004E002884FF6BF731A4002807047EA
:101D00001AB183880B43838002E083888B438380EE
:101D10007047018270470146088AC0B2704712B10D
:101D200041F0010102E04FF6FE7319400182704755
:101D300008B50246002000900092009808440090E8
:101D40000098008808BD21B1028842F40042028058
:101D500003E00288C2F30E0202807047B1F5006F03
:101D600004D1028842F40062028004E002884FF24B
:101D7000FF731A4002807047B1F5005F04D10288FA
:101D800042F40052028004E002884DF6FF731A40CC
:101D90000280704721B1028842F48052028004E040
:101DA00002884EF6FF731A4002807047B1F5006F4B
:101DB00004D1028842F40062028004E002884FF2FB
:101DC000FF731A400280704721B1028842F020025E
:101DD000028004E002884FF6DF731A4002807047E9
:101DE0000146088B0012704721B1028842F01002B0
:101DF000028004E002884FF6EF731A4002807047B9
:101E000021B9028842F08002028004E002884FF685
:101E10007F731A4002807047B1F5804F05D0828BE6
:101E20004BF6FF731A40828303E0828B42F48042B8
:101E30008283704770B502460024002500230020ED
:101E4000958A138B1B0445EA030626F07F4404EAB7
:101E500001068E4201D1012000E0002070BD10B5C6
:101E600001460020002300228B8A0A8B120443EAD9
:101E7000020424F07F4010BD0CB502460020002370
:101E80000193009300920B0F019321F07F41019B7E
:101E90001BB1009B1433009303E0090C009B183323
:101EA0000093009B1B680B4201D0012000E0002042
:101EB0000CBD002221F07F42D3438382704730B5AE
:101EC000024600200023948801F0E06504EA1543EF
:101ED00021F07F41948A0C420AD04BB1012008E0E6
:101EE0000054004000127A0040420F00A08601001A
:101EF000002030BD002221F07F42D343838270470F
:101F00000E49086070470D49486070470B4988606A
:101F100070474AF6AA200949086070474CF6CC4041
:101F200006490860704701460020044AD2680A4208
:101F300001D0012000E00020704700000030004088
:101F4000DD48006840F00100DB4908600846406851
:101F5000DA490840D849486008460068D84908402E
:101F6000D54908600846006820F4802008600846CB
:101F7000406820F4FE0048604FF41F0088607047FE
:101F8000CD49096821F48031CB4A116011460968B6
:101F900021F480211160B0F5803F03D0B0F5802F8F
:101FA0000ED106E0C449096841F48031C24A11608B
:101FB00007E0C149096841F4A021BF4A116000E06F
:101FC00000BF00BF704710B501460022002300206B
:101FD0004A11012A02D1B84C236806E0022A02D134
:101FE000B54C236A01E0B44C636A01F01F0201247E
:101FF00094401C4201D0012000E0002010BD38B503
:10200000002000900024002500BF3120FFF7DBFFF7
:1020100005460098401C00900098B0F5A06F01D0D4
:10202000002DF2D03120FFF7CEFF08B1012400E0EF
:102030000024204638BD014600209F4A106820F049
:10204000F80040EAC100106070479E490860704780
:1020500002460020984B586820F47C1042EA0103A5
:102060001843954B5860704796490866704701467B
:102070000020914A506820F00300084350607047E8
:102080008D48406800F00C007047014600208A4AE5
:10209000506820F0F000084350607047014600206F
:1020A000854A506820F4E06008435060704701465C
:1020B0000020814A506820F4605040EAC10050601E
:1020C000704729B17C4A527A02437B4B5A7204E032
:1020D000794A527A8243784B5A7270477A4908603B
:1020E000704701460020744A506820F4404008437D
:1020F000506070470021754A11706F4A82F82010B5
:10210000012802D0042808D103E001216F4A117090
:1021100004E005216D4A117000E000BF00BF704768
:102120006B49086070476449096A0143624A116259
:102130007047674944390860704730B50021002274
:10214000002400235C4D6D6805F00C0121B10429C9
:1021500005D0082923D105E05E4D056022E05D4DE4
:1021600005601FE0544D6D6805F47012524D6D68A6
:1021700005F48034022505EB92421CB9564D5543B7
:1021800005600BE04C4D6D6815F4003F03D0524DD7
:102190005543056002E04F4D5543056002E04D4D4B
:1021A000056000BF00BF444D6D6805F0F0010909EE
:1021B0004A4D6B5C0568DD4045603F4D6D6805F438
:1021C000E061090A454D6B5C4568DD4085603A4D2C
:1021D0006D6805F46051C90A404D6B5C4568DD408F
:1021E000C560354D6D6805F44041890B3C4D6B5C15
:1021F000C568B5FBF3F5056130BD29B12E4A5269BA
:1022000002432D4B5A6104E02B4A526982432A4B08
:102210005A61704729B1284A92690243264B9A6154
:1022200004E0254A92698243234B9A61704729B1A1
:10223000214AD2690243204BDA6104E01E4AD26986
:1022400082431D4BDA61704729B11B4AD2680243B1
:10225000194BDA6004E0184AD2688243164BDA6000
:10226000704729B1144A12690243134B1A6104E002
:10227000114A12698243104B1A6170471449403960
:10228000086070470F49C86470470B49C8717047B0
:102290000948406A40F0807007494862704701462B
:1022A0000020054A92680A4201D0012000E0002087
:1022B0007047014988727047001002400000FFF823
:1022C000FFFFF6FE00004242D800424220100240CA
:1022D0008004424200127A0000093D002B000020D9
:1022E0003B00002010B50446BE48844208D10121BD
:1022F0008014FFF7A9FF0021A014FFF7A5FF16E047
:10230000B948844208D101210014FFF7AAFF002137
:102310002014FFF7A6FF0AE0B448844207D1012148
:10232000C013FFF79EFF0021E013FFF79AFF10BDD7
:1023300010B50022028802F441520B884C882343D6
:102340008C882343CC8823430C8923434C89234323
:102350008C892343CC8923431A430280838B4FF219
:10236000FF74234083830B8A038210BD2DE9F04F55
:1023700085B005460C464FF0000902274FF00008D3
:102380004FF0010B0026B246A88B4FF240010840E7
:10239000A88302202884B5F81C90A068022801D1E7
:1023A00000BF38E0A08810B94FF0010B01E04FF0FA
:1023B000020B8D48854200D100E000BF6846FFF760
:1023C000BCFEDDF800A0E088B0F5007F0AD14FEA3E
:1023D0001A2000EB80004000A168B0FBF1F0401D26
:1023E00086B20BE04FEA4B10BAFBF0F000EB800036
:1023F0004000A168B0FBF1F0401D86B20A20B6FB98
:10240000F0F606F00108A6EB0800C0F34F074FF600
:10241000FF7000EA0828022F01DBFF2F02DD0227F0
:102420004FF00008E08840EA080038432884A0887C
:10243000A1890843618808432188084340F400606B
:1024400040EA0909A5F81C9005B0BDE8F08F00210D
:10245000018041808180C180018141818181C18170
:102460000721018270470021018041808180C18065
:102470000221816000218181704721B1028842F0F0
:102480004002028004E002884FF6BF731A400280C7
:10249000704721B1828B42F48062828304E0828B98
:1024A0004FF6FF331A408283704730B50024002373
:1024B0000C110125A540ABB21AB185881D4385805A
:1024C00002E085889D43858030BD1AB183880B4327
:1024D000838002E083888B438380704781817047CB
:1024E000014688897047A1F57E42FF3A04D00288F0
:1024F00042F48072028004E002884FF6FF631A40C3
:102500000280704721B1828842F00402828004E098
:1025100082884FF6FB731A408280704702884FF220
:10252000FF731A40028002880A43028070470188C4
:1025300041F480510180704721B1028842F4005279
:10254000028004E002884DF6FF731A400280704753
:1025500002460020012901D0108B00E0908A7047CC
:102560000146088A7047B1F5804F04D1028842F4D1
:102570008042028004E002884BF6FF731A4002801A
:1025800070470246002013890B4201D0012000E071
:1025900000207047CA4302817047F0B50246002010
:1025A00000240023002501F00F070126BE40B4B22D
:1025B0000B1101269E40B3B2968806EA03051689E0
:1025C000264202D00DB1012000E00020F0BD10B580
:1025D000002201F00F040123A3409AB2D3430381E8
:1025E00010BD00000030014000380040003C0040B9
:1025F00010B50446FE48844208D10121C014FFF7FB
:1026000023FE0021E014FFF71FFEC4E0B4F1804F69
:1026100008D101210846FFF724FE00210120FFF721
:1026200020FEB8E0F348844208D101210220FFF7E0
:1026300018FE00210220FFF714FEACE0EE488442B1
:1026400008D101210420FFF70CFE00210420FFF730
:1026500008FEA0E0E948844208D101210820FFF7E4
:1026600000FE00210820FFF7FCFD94E0E4488442CE
:1026700008D101211020FFF7F4FD00211020FFF701
:10268000F0FD88E0DF48844208D101212020FFF7D7
:10269000E8FD00212020FFF7E4FD7CE0DA488442D9
:1026A00008D101214014FFF7CFFD00216014FFF78E
:1026B000CBFD70E0D548844209D10121C804FFF761
:1026C000C3FD00214FF40020FFF7BEFD63E0D048BA
:1026D000844209D101210805FFF7B6FD00214FF41E
:1026E0008010FFF7B1FD56E0CA48844209D10121AC
:1026F0004805FFF7A9FD00214FF40010FFF7A4FDE6
:1027000049E0C548844208D101214020FFF7A9FDD6
:1027100000214020FFF7A5FD3DE0C048844208D1DC
:1027200001218020FFF79DFD00218020FFF799FD0A
:1027300031E0BB48844208D101218015FFF791FDAB
:102740000021A015FFF78DFD25E0B648844209D190
:1027500001210804FFF778FD00214FF48030FFF7D6
:1027600073FD18E0B048844209D101214804FFF705
:102770006BFD00214FF40030FFF766FD0BE0AB4826
:10278000844208D101218804FFF75EFD00214FF447
:102790008020FFF759FD10BD00220288944B98421B
:1027A0000ED0994B98420BD0B0F1804F08D0914B8E
:1027B000984205D0904B984202D0904B984204D159
:1027C0004FF68F731A404B881A438D4B984207D0AF
:1027D0008C4B984204D04FF6FF431A40CB881A43E3
:1027E00002808B8883850B880385814B98420BD0B0
:1027F000854B984208D08B4B984205D08A4B984223
:1028000002D08A4B984201D10B7A0386012383823E
:10281000704770B5002400220023058C4FF6FE7629
:1028200035400584028C8388048B4FF68F752C40CD
:10283000B51E2C400D882C43751E2A400D892A4355
:102840004D882A436A4DA8420BD06F4DA84208D04C
:10285000744DA84205D0744DA84202D0734DA842D1
:1028600013D14FF6F7752A404D892A434FF6FB7571
:102870002A408D882A434FF6FF652B404FF6FF55BF
:102880002B408D892B43CD892B4383800483CD88B6
:102890008586028470BD70B5002400220023058C5B
:1028A0004FF6EF7635400584028C8388048B48F61A
:1028B000FF752C404FF6FF452C400D884FF6FF76F4
:1028C00006EA05252C434FF6DF752A400D8906EAF6
:1028D00005152A434D8806EA05152A43444DA842AA
:1028E00002D0494DA8421DD14FF67F752A404D892F
:1028F0004FF6FF7606EA05152A434FF6BF752A40C4
:102900008D8806EA05152A434FF6FF352B404FF216
:10291000FF752B408D8906EA85052B43CD8906EA94
:1029200085052B4383800483CD880587028470BD91
:1029300070B5002400220023058C4FF6FF66354059
:102940000584028C8388848B4FF68F752C404FF65C
:10295000FC752C400D882C434FF6FF552A400D89FD
:102960004FF6FF7606EA05252A434D8806EA052537
:102970002A431F4DA84202D0234DA8421DD14FF239
:10298000FF752A404D894FF6FF7606EA05252A4352
:102990004FF6FF352A408D8806EA05252A434EF674
:1029A000FF752B404DF6FF752B408D8906EA051506
:1029B0002B43CD8906EA05152B4383808483CD887C
:1029C0008587028470BD70B5002200230024058C29
:1029D0004EF6FF7635400584038C8488828B48F65A
:1029E000FF752A404FF6FF452A400D8820E0000081
:1029F000002C01400004004000080040000C004092
:102A0000001000400014004000340140004C014020
:102A1000005001400054014000180040001C0040DC
:102A200000200040004001400044014000480140B7
:102A30004FF6FF7606EA05252A434DF6FF752B4033
:102A40000D8906EA05352B434D8806EA05352B43EB
:102A5000FA4DA84202D0FA4DA84208D14BF6FF75B4
:102A60002C408D894FF6FF7606EA85152C4384802D
:102A70008283CD88A0F84050038470BD828B4FF2D2
:102A8000FF331A408283828B4FF6FF7303EA0123E0
:102A90001A4382837047F0B50C4615460022002188
:102AA0000026078C4EF6FF7C07EA0C070784828B12
:102AB000018C4FF6FF7707EA043640F6FF473A40AD
:102AC0004FF6FF7707EA05273A434FF6FF7707EA05
:102AD00003373A43D94FB8420ED0D94FB8420BD042
:102AE000B0F1804F08D0D74FB84205D0D64FB8428A
:102AF00002D0D64FB84206D14DF6FF77394046F4A2
:102B00008057394305E047F6FF57394044F4805772
:102B1000394382830184F0BD828B4FF6F3731A40F0
:102B20008283828B0A4382837047F0B50C46154638
:102B3000002200210026078C4FF6FF6C07EA0C07E5
:102B40000784828B018C4FF6FF7707EA04264FF645
:102B50000C773A404FF6FF7707EA03172F433A43C3
:102B6000B64FB8420ED0B64FB8420BD0B0F1804F3E
:102B700008D0B44FB84205D0B34FB84202D0B34FDB
:102B8000B84206D14FF6FF57394046F480773943B3
:102B900005E04FF2FF57394044F480773943828390
:102BA0000184F0BD028B4FF2FF331A400283028B87
:102BB0004FF6FF7303EA01231A4302837047F0B50F
:102BC0000C461546002200210026078C4FF6EF7CAC
:102BD00007EA0C070784028B018C4FF6FF7707EAA0
:102BE000041640F6FF473A404FF6FF7707EA0337EF
:102BF0003A434FF6FF7707EA05273A438F4FB8422B
:102C00000ED08F4FB8420BD0B0F1804F08D08D4F0F
:102C1000B84205D08C4FB84202D08C4FB84206D192
:102C20004FF6DF77394046F01007394305E04FF69D
:102C30005F77394044F01007394302830184F0BDC7
:102C4000028B4FF6F3731A400283028B0A4302830E
:102C50007047F0B50C46154600220021068C4FF651
:102C6000FE773E400684028B018C4FF60C76324094
:102C70007E1C06EA03162E433243704EB0420ED03D
:102C80006F4EB0420BD0B0F1804F08D06D4EB042C5
:102C900005D06D4EB04202D06C4EB04206D14FF618
:102CA000FD76314044F00106314305E04FF6F576FC
:102CB000314044F00106314302830184F0BD70B518
:102CC00005460C465D4885420ED05D4885420BD0D6
:102CD000B5F1804F08D05B48854205D05A488542FF
:102CE00002D05A48854200D100E000BF208850B988
:102CF0002389A28861882846FFF7ABFFE188284630
:102D0000FFF79EFF25E0208804280AD12389A288A6
:102D100061882846FFF753FFE1882846FFF742FF06
:102D200017E0208808280AD12389A28861882846CC
:102D3000FFF7FBFEE1882846FFF7EEFE09E0238956
:102D4000A28861882846FFF7A6FEE1882846FFF79B
:102D500095FE70BD2DE9F04105460C460026012781
:102D6000608808B9022600E00026A088012801D169
:102D7000022700E001272088A0B92389A288618862
:102D80002846FFF766FFE1882846FFF759FF2389A9
:102D90003A4631462846FFF712FFE1882846FFF7FA
:102DA00001FF13E02389A28861882846FFF707FF07
:102DB000E1882846FFF7F6FE23893A463146284641
:102DC000FFF747FFE1882846FFF73AFFBDE8F081AB
:102DD0000A884B881A438B881A43CB881A430B897D
:102DE0001A434B891A438B891A43A0F84420704731
:102DF0004FF6FF71818000210180C1804180017206
:102E000070470021018041808180C1800181418122
:102E10008181C18170470021018041800121818031
:102E20000021C180018170470021018041808180A3
:102E3000C18001814181818170470000002C0140E7
:102E4000003401400004004000080040000C004035
:102E500021B1028842F00102028004E002884FF6AC
:102E6000FE731A400280704731B1B0F8442042F43A
:102E70000042A0F8442005E0B0F84420C2F30E025E
:102E8000A0F8442070471AB183890B43838102E084
:102E900083898B43838170478182704741EA0203B3
:102EA000A0F8483070471AB183890B43838102E050
:102EB00083898B438381704701894FF6F8721140F3
:102EC000018170470A46002101894FF68F7319402E
:102ED00011430181704730B504460D46294620460E
:102EE000FFF7F0FF208940F00700208130BD2DE979
:102EF000F04104460D4616461F46602D06D13B465E
:102F0000012231462046FFF75AFE05E03B460122EA
:102F100031462046FFF79DFE29462046FFF7D2FFA7
:102F2000208940F007002081BDE8F08130B50C46D3
:102F300000210189C9B24FF6FF7505EA0325154343
:102F400025432943018130BD2DE9F04105460E4658
:102F500017469846002443463A4631462846FFF72E
:102F6000E5FF2C894FF6F870044044F007044FF653
:102F70008F70044044F070042C81BDE8F081F0B5FE
:102F800004460D4616461F463B4632462946204615
:102F9000FFF7CCFF208940F480402081F0BD0185FF
:102FA000828270470A46002101884FF68F731940CC
:102FB000114301807047F0B50C4615461E460021AE
:102FC000002200230189028B038C4FF6F8773940E9
:102FD00021434FF6FC473A4040F201173A434FF67F
:102FE000DD773B404FF6FF7707EA06172F433B4359
:102FF000018102830384F0BD0A460021018B4FF654
:103000008F7319401143018370470A460021018BD9
:1030100048F6FF7319404FF6FF7303EA0223194382
:10302000018370470A460021818B4FF68F73194048
:103030001143818370470A460021818B48F6FF7354
:1030400019404FF6FF7303EA022319438183704747
:1030500021B1028842F08002028004E002884FF62B
:103060007F731A400280704721B1828842F00402C7
:10307000828004E082884FF6FB731A40828070479A
:1030800021B1828842F00802828004E082884FF6F3
:10309000F7731A408280704721B1828842F00102A2
:1030A000828004E082884FF6FE731A408280704767
:1030B0000A460021018B4FF6F77319401143018333
:1030C00070470A460021018B4FF2FF7319404FF6FB
:1030D000FF7303EA02231943018370470A46002164
:1030E000818B4FF6F77319401143818370470A466D
:1030F0000021818B4FF2FF7319404FF6FF7303EAF3
:1031000002231943818370470A460021018B4FF641
:10311000FB7319401143018370470A460021018B5C
:103120004FF6FF3319404FF6FF7303EA02231943AA
:10313000018370470A460021818B4FF6FB731940CB
:103140001143818370470A460021818B4FF6FF337C
:1031500019404FF6FF7303EA022319438183704736
:103160000A460021018B4FF67F73194011430183FA
:1031700070470A460021018BC1F30E014FF6FF7321
:1031800003EA02231943018370470A460021818B19
:103190004FF67F7319401143818370470A4600211F
:1031A000818BC1F30E014FF6FF7303EA022319432B
:1031B000818370470A460021018C4FF6FD73194048
:1031C0001143018470470A460021018C4FF6F773C2
:1031D00019401143018470470A460021018C4FF6C3
:1031E000DF7319404FF6FF7303EA0213194301849A
:1031F00070470A460021018C4FF67F7319404FF645
:10320000FF7303EA02131943018470470A46002141
:10321000018C4FF6FF5319404FF6FF7303EA022368
:103220001943018470470A460021018C4FF2FF7355
:1032300019404FF6FF7303EA0223194301847047D4
:103240000A460021018C4DF6FF7319404FF6FF73BB
:1032500003EA023319430184704730B50023012487
:103260008C40A3B2048C9C430484048C02FA01F5C4
:10327000ADB22C43048430BD30B5002304248C400F
:10328000A3B2048C9C430484048C02FA01F5ADB211
:103290002C43048430BD70B503460020002418463A
:1032A000183001258D40ACB21D8CA5431D8409B199
:1032B000082909D100EB6100056825F0700505605B
:1032C0000568154305600EE00D1FC5F34E05284443
:1032D000056825F4E045056005684FF6FF7606EAC7
:1032E00002263543056070BD21B1028842F002021A
:1032F000028004E002884FF6FD731A400280704796
:1033000021B1028842F00402028004E002884FF6F4
:10331000FB731A400280704721B1828842F080021C
:10332000828004E082884FF67F731A408280704763
:1033300002884FF6F7731A40028002880A4302801F
:10334000704782884FF68F731A40828082880A43C2
:103350008280704702894FF6F8731A400281028911
:103360000A430281704702894FF67F731A40028137
:1033700002890A43028170478184704781857047C2
:10338000818670470187704781877047A0F8401099
:10339000704702884FF6FF431A40028002880A43B2
:1033A000028070470146888E70470146088F70473B
:1033B0000146888F70470146B1F8400070470146CA
:1033C000888C70470146088D704702460020138A9A
:1033D0000B4201D0012000E000207047CA43028266
:1033E000704730B50246002000230024158A05EA04
:1033F0000103958905EA010413B10CB1012000E035
:10340000002030BDCA4302827047000010B5044658
:10341000FB48844209D101218803FEF715FF0021F2
:103420004FF48040FEF710FF32E0F648844209D1A5
:1034300001214804FEF715FF00214FF40030FEF78C
:1034400010FF25E0F048844209D101218804FEF7ED
:1034500008FF00214FF48020FEF703FF18E0EB483F
:10346000844209D10121C804FEF7FBFE00214FF47C
:103470000020FEF7F6FE0BE0E548844208D101216A
:103480000805FEF7EEFE00214FF48010FEF7E9FE7E
:1034900010BD2DE9F04786B005460E460024A24631
:1034A00000BFA1460027B08900B100BF2F462C8A7B
:1034B0004CF6FF700440F08804432C82AC894EF631
:1034C000F3100440B08831890843718908430443EC
:1034D000AC81AC8A4FF6FF400440B0890443AC8213
:1034E00001A8FEF72AFEC648874202D1DDF810A0E7
:1034F00001E0DDF80CA0A88910F4004F08D00AEB19
:10350000CA0000EB0A1031684900B0FBF1F807E08F
:103510000AEBCA0000EB0A1031688900B0FBF1F831
:103520006420B8FBF0F004012009642101FB10893C
:10353000A88910F4004F08D0322000EBC900B0FB7E
:10354000F1F000F00700044308E0322000EB09101E
:103550006421B0FBF1F000F00F0004432C8106B0B1
:10356000BDE8F0874FF41651016000218180C180D1
:1035700001810C21418100218181704710B50246F3
:103580000020108A4FF2FF0318400B884C88234319
:103590008C882343CC8823431843108210BD00211C
:1035A000018041808180C180704721B1828942F4CD
:1035B0000052828104E082894DF6FF731A408281B5
:1035C0007047F0B503460024002600250020A1F531
:1035D00010676A3F00D100BF1846C1F3421401F0E2
:1035E0001F06012707FA06F5012C01D10C3004E073
:1035F000022C01D1103000E014301AB107682F43BB
:10360000076002E00768AF430760F0BD1AB1838A24
:103610000B43838202E0838A8B4383827047028A52
:103620004FF6F0731A400282028A0A430282704700
:1036300082894FF2FF731A40828182890A43828114
:10364000704721B1828942F00202828104E08289BE
:103650004FF6FD731A4082817047028A4FF6DF737E
:103660001A400282028A0A430282704721B1028A0A
:1036700042F48042028204E0028A4BF6FF731A4051
:1036800002827047C1F30802828070470146888831
:10369000C0F308007047818941F0010181817047C2
:1036A000028BD2B20283028B42EA0122028370476C
:1036B000028B02F47F420283028B0A43028370472B
:1036C00021B1828A42F02002828204E0828A4FF68F
:1036D000DF731A408282704721B1828A42F0100261
:1036E000828204E0828A4FF6EF731A40828270472A
:1036F00021B1828A42F00802828204E0828A4FF677
:10370000F7731A408282704721B1828942F40042E5
:10371000828103E08289C2F30E028281704721B167
:10372000828A42F40062828204E0828A4FF2FF734E
:103730001A4082827047828A4FF6FB731A40828257
:10374000828A0A438282704721B1828A42F0020251
:10375000828204E0828A4FF6FD731A4082827047AB
:1037600002460020B1F5007F00D100BF13880B4254
:1037700001D0012000E00020704701F40072B2F592
:10378000007F00D100BFCA430280704770B5024677
:103790000024002300250020A1F510666A3E00D118
:1037A00000BFC1F3421501F01F03012606FA03F31F
:1037B000012D02D19689334006E0022D02D1168AEE
:1037C000334001E0968A33400C12012606FA04F4D5
:1037D0001688344013B10CB1012000E0002070BD08
:1037E00010B500220023A1F510646A3C00D100BF8F
:1037F0000A1201249440A3B2DC43048010BD0000EF
:10380000003801400044004000480040004C0040A7
:10381000005000400CB50020019000906B480068FB
:1038200040F480306949086000BF6848006800F4CF
:10383000003000900198401C0190009818B9019840
:10384000B0F5A06FF1D16148006810F4003F02D0DC
:103850000120009001E0002000900098012842D152
:103860005B48006840F0100059490860084600684D
:1038700020F0030008600846006840F0020008607D
:1038800052484068514948600846406848600846C8
:10389000406840F4806048600846406820F47C102E
:1038A00048600846406840F4E810486008460068F0
:1038B00040F08070086000BF4448006810F0007F4E
:1038C000FAD04248406820F003004049486008466A
:1038D000406840F00200486000BF3C48406800F08B
:1038E0000C000828F9D10CBD10B5FFF793FF10BDEF
:1038F00010B53648006840F00100344908600846B9
:1039000040683449084031494860084600683249F7
:1039100008402E4908600846006820F480200860AE
:103920000846406820F4FE0048604FF41F0088609D
:10393000FFF7DAFF4FF000602849086010BD10B5AE
:10394000002100200022214B5B6803F00C0121B113
:10395000042906D0082928D107E0214B214C2360F7
:1039600027E01F4B1F4C236023E0184B5B6803F4D8
:103970007010164B5B6803F48032022303EB904017
:1039800022B9194B4343174C23600DE00F4B5B6882
:1039900013F4003F04D0144B4343124C236003E064
:1039A0000F4B43430F4C236003E00D4B0D4C236042
:1039B00000BF00BF054B5B68C3F303130B4CE15C16
:1039C000084B1B68CB40074C236010BD0010024021
:1039D000002002400000FFF8FFFFF6FE08ED00E0C7
:1039E00000127A004000002000093D004400002041
:1039F0000648804706480047FEE7FEE7FEE7FEE789
:103A0000FEE7FEE7FEE7FEE7FEE7FEE7F138000827
:103A1000ED00000808B501210820FEF7FBFB10208F
:103A20008DF8030001208DF802008002ADF800003F
:103A300069465148FDF716FF4FF480614E48FDF787
:103A4000BEFF4EA001F07AFC08BD10B54FF48061B6
:103A50004948FDF7B2FF10BD10B54FF480614648EC
:103A6000FDF7ADFF10BD704710B54C4800688047AA
:103A700010BD10B54A480068804710BD10B5AFF2C0
:103A8000350046490860AFF22F0045490860FFF74E
:103A9000F0FF44A001F052FC10BD10B54B4B187064
:103AA0004B4B19804B4B1A8000234B4C237010BD9D
:103AB00010B54948007820B1012814D0022857D108
:103AC00055E04248007818B901204449087002E0E6
:103AD000002042490870FFF7CCFF012040490870E0
:103AE0003D49087045E03E480078F8B13D480088FF
:103AF000B0B93648007830B93848007818B9022093
:103B00003549087035E03248008848B3FFF7ACFF0C
:103B10002F4800883349088000203149087025E08B
:103B200030480088401E2F4908801FE02D4800883B
:103B3000B8B92848008898B1FFF79BFF254800884E
:103B4000284908800120264908702448007838B99F
:103B50001E48007820B11D480078401E1B4908709F
:103B600004E020480088401E1E49088001E000E073
:103B700000BF00BF10BD0000000C0140495453427B
:103B80003A206C656420696E697469616C697A6158
:103B900074696F6E204F4B2021200A0054000020D2
:103BA00058000020495453423A206C6564466C61C9
:103BB000736820696E697469616C697A6174696F90
:103BC0006E204F4B2021200A000000005D000020E5
:103BD0005E000020600000205C00002065000020E6
:103BE000640000206200002000B585B0012108209B
:103BF000FEF710FB01214805FEF719FBC020ADF8C8
:103C0000100003208DF812001C208DF8130004A969
:103C10007248FDF727FE0020ADF804004BF6FF7058
:103C2000ADF806000020ADF808004FF48060ADF854
:103C30000A000001ADF80C006948009001216948B4
:103C4000FDF7F3FF69466748FDF771FF66A001F0D5
:103C500075FB05B000BD70B504460E461546012142
:103C60006048FEF71EF800BF4FF400315D48FEF7D4
:103C700003F90028F8D101216348FDF7FAFF00BFDE
:103C800062495848FEF7D6F80028F9D000222146AC
:103C90005448FEF744F800BF5D495248FEF7CAF8A1
:103CA0000028F9D031464F48FEF733F800BF584995
:103CB000891C4C48FEF7BEF80028F8D02946494830
:103CC000FEF727F800BF5249891C4648FEF7B2F8B4
:103CD0000028F8D001214348FDF7D7FF70BD70B52B
:103CE00004460D4600BF4FF400313E48FEF7C4F8CD
:103CF0000028F8D101213B48FDF7BBFF00BF434935
:103D00003848FEF797F80028F9D0002221463548B8
:103D1000FEF705F800BF3E493248FEF78BF8002851
:103D2000F9D029462F48FDF7F4FF00BF3849891C18
:103D30002C48FEF77FF80028F8D001212948FDF72C
:103D400098FF00BF31492748FEF774F80028F9D0E2
:103D5000601CC1B201222348FDF7E1FF00BF2B49DF
:103D6000491C2048FEF766F80028F8D000211D48BD
:103D7000FDF797FF01211B48FDF787FF00BF23498F
:103D80003F311848FEF756F80028F8D01548FDF7DF
:103D9000C2FF70BD70B504464FF47A7504E0280088
:103DA000A5F1010500D170BD21460E48FEF742F88D
:103DB0000028F4D00120F6E770B504464FF47A7578
:103DC00004E02800A5F1010500D170BD2146054899
:103DD000FEF730F80028F4D10120F6E7000C01408E
:103DE000801A060000540040495453423A20696941
:103DF0006320696E697469616C697A6174696F6E58
:103E0000204F4B2021200A000058004001000300F1
:103E10008200070008B501213820FEF7FBF90420D5
:103E20008DF8030001208DF802003820ADF8000065
:103E300069462648FDF716FD4FF47070ADF8000096
:103E400069462348FDF70EFD0420ADF800006946E1
:103E50002048FDF707FD20A001F070FA08BD70B5FD
:103E6000002420211948FDF78EFD05461021174832
:103E7000FDF789FD45EA400508211448FDF783FD5B
:103E800045EA800504211348FDF77DFD45EAC0059C
:103E90004FF400710E48FDF776FD45EA00154FF42A
:103EA00080710B48FDF76FFD45EA401580210848F9
:103EB000FDF769FD45EA801540210548FDF763FDE2
:103EC00045EAC010C4B2204670BD0000000C01409D
:103ED0000010014000140140495453423A206164EB
:103EE000647220696E697469616C697A6174696F62
:103EF0006E204F4B2021200A0000000070B50546BF
:103F0000002405E0601CC4B2C82C01DD002070BD97
:103F100002213048FEF735FB0028F3D029462D4812
:103F2000FEF7DCFA002405E0601CC4B2C82C01DDF9
:103F30000020ECE701212748FEF723FB0028F3D0FF
:103F40002448FEF7CDFAC0B2E1E700B587B0012101
:103F50000820FEF75FF901218803FEF768F94FF4A6
:103F60006040ADF8040018208DF8070003208DF89C
:103F7000060001A91848FDF775FC0020ADF80800FF
:103F80004FF48270ADF80A000020ADF80C0002205A
:103F9000ADF80E000120ADF810004002ADF812009F
:103FA0003820ADF814000020ADF816000720ADF859
:103FB000180002A90748FEF7BBF901210548FEF7E2
:103FC0005CFAFF20FFF79AFF04A001F0B7F907B0F1
:103FD00000BD000000380040000C0140495453422D
:103FE0003A2073706920696E697469616C697A61DD
:103FF00074696F6E204F4B2021200A0010B586B0E7
:1040000004464748FFF702FA012144F20400FEF794
:1040100001F94FF40070ADF8140018208DF8170066
:1040200003208DF8160005A93E48FDF71BFC4FF450
:104030008060ADF8140004208DF8170003208DF87F
:10404000160005A93748FDF70DFC01940020ADF8D6
:104050000800ADF80A00ADF80C00ADF810000C2017
:10406000ADF80E0001A92E48FFF713FA40212C48A5
:10407000FFF776FB012240F225512948FFF7A1FA0C
:1040800001212748FFF791FA4FF4E060FCF7EEFCBE
:1040900025208DF8000003208DF8010000208DF808
:1040A000020001208DF803006846FCF7E4FC21467D
:1040B0001DA001F043F906B010BD10B51848FFF778
:1040C000A5F910BD10B5044621461548FFF7DAFAE8
:1040D00000BF40211248FFF743FB0028F9D010BD74
:1040E00070B504460D4603E02078FFF7EBFF641C33
:1040F0002800A5F101018DB2F6D170BD08B540F2DE
:1041000025510748FFF742FB40B10548FFF7BEFACB
:10411000C0B200900121684600F0ECFB08BD000031
:104120000038014000080140495453423A20757359
:10413000617274312028626175643A2564292069AE
:104140006E697469616C697A6174696F6E204F4B36
:104150002021200A0000000010B586B004464D481A
:10416000FFF754F901210420FEF754F80121480417
:10417000FEF75DF80420ADF8140018208DF8170044
:1041800003208DF8160005A94348FDF76BFB0820B6
:10419000ADF8140004208DF8170003208DF81600E8
:1041A00005A93D48FDF75EFB01940020ADF808002D
:1041B000ADF80A00ADF80C00ADF810000C20ADF819
:1041C0000E0001A93348FFF764F940213148FFF799
:1041D000C7FA012240F225512E48FFF7F2F90121DA
:1041E0002C48FFF7E2F94FF4E060FCF73FFC262093
:1041F0008DF8000004208DF8010000208DF80200E9
:1042000001208DF803006846FCF735FC214623A009
:1042100001F094F806B010BD10B51E48FFF7F6F88F
:1042200010BD10B5044621461A48FFF72BFA00BF0F
:1042300040211848FFF794FA0028F9D010BD70B556
:1042400004460D4603E02078FFF7EBFF641C2800CE
:10425000A5F101018DB2F6D170BD10B540F2255126
:104260000C48FFF793FA18B10A48FFF70FFAC4B2E7
:1042700010BD70B504460D46E1B20648FFF702FADC
:1042800000BF40210348FFF76BFA0028F9D0204611
:1042900070BD0000004400400008014049545342F2
:1042A0003A207573617274322028626175643A2510
:1042B000642920696E697469616C697A6174696FD7
:1042C0006E204F4B2021200A0000000070B50546EB
:1042D0000C462DB14FF400618C48FDF76EFB04E0F5
:1042E0004FF400618948FDF76AFB2CB14FF48061FF
:1042F0008648FDF762FB04E04FF480618348FDF7D8
:104300005EFB70BD10B5044634B1012C09D0022CFF
:104310000CD0032C14D10EE000210846FFF7D6FF85
:1043200013E000210120FFF7D1FF0EE00121002062
:10433000FFF7CCFF09E001210846FFF7C7FF04E0C3
:1043400000210846FFF7C2FF00BF00BF10BD08B53F
:1043500001211420FDF75EFF10208DF803000120DD
:104360008DF802004FF44060ADF8000069466748E0
:10437000FDF778FA4FF440616448FDF720FB042014
:104380008DF8030001208DF802000002ADF8000056
:1043900069465F48FDF766FA0020FFF7B3FF5DA0AE
:1043A00000F0CCFF08BD10B50320FFF7ABFF0024E1
:1043B00004E0C420FFF786FE601CC4B2032CF8DBC7
:1043C00010BD10B50320FFF79DFF002404E0C320BB
:1043D000FFF778FE601CC4B2032CF8DB10BD10B5EB
:1043E0000320FFF78FFF002404E0C120FFF76AFEDF
:1043F000601CC4B2032CF8DB10BD2DE9FC47064657
:104400000F46904699464CA103C9CDE9000103200F
:10441000FFF778FFB7F5964F1FD00CDCB7F5966F16
:1044200013D0B7F5166F12D0B7F5965F11D0B7F568
:10443000165F1AD10FE0B7F5164F10D0B7F5614FE0
:104440000FD0B7F5E13F10D10DE000240FE00124BB
:104450000DE002240BE0032409E0042407E0052416
:1044600005E0062403E0072401E0032400BF00BFA9
:104470004046B8F5964F21D00CDCB0F5966F15D0BC
:10448000B0F5166F14D0B0F5965F13D0B0F5165F87
:104490001CD111E0B0F5164F12D0A0F543405038B2
:1044A00010D0A0F59C40203810D10DE000250FE081
:1044B00001250DE002250BE0032509E0042507E0B6
:1044C000052505E0062503E0072501E0002500BFDE
:1044D00000BFC0208DF8000030128DF80100F0B24E
:1044E0008DF80200284664F3DF00C0B28DF80300A7
:1044F0008DF804904FF0C4008DF805004FF00601D0
:104500006846FFF7EDFDBDE8FC87000000100140A4
:1045100000080140495453423A20726164696F2097
:10452000696E697469616C697A6174696F6E204F34
:104530004B2021200A000000C0FFFF1F50C40000D4
:1045400000B591B001210846FDF757FE01214FF457
:104550000570FDF75FFEF020ADF8400000208DF8FB
:10456000430010A95748FDF77DF90320ADF840003E
:1045700000208DF8430010A95348FDF773F9534804
:10458000FCF70AFD5248059052480690002007901B
:10459000062008900020099080200A9040000B908F
:1045A00080000C9020200D9000020E9000200F90B3
:1045B00005A94648FCF792FD01214448FCF7B9FDE6
:1045C00043484C38FCF7C0FA0020009001208DF8D9
:1045D00004008DF805004FF4602002900020039045
:1045E00006208DF81000694639484C38FCF7D3FA9C
:1045F00005230122062136484C38FCF764FB0523CD
:104600000222072132484C38FCF75DFB05230322C8
:1046100004212F484C38FCF756FB05230422194689
:104620002B484C38FCF74FFB05231A460A21284833
:104630004C38FCF748FB052306220B2124484C3854
:10464000FCF741FB012122484C38FCF7DBFA012141
:104650001F484C38FCF7CBFA1D484C38FCF7E9FAF8
:1046600000BF1B484C38FCF7E9FA0028F9D118487C
:104670004C38FCF7EDFA00BF15484C38FCF7EDFA62
:104680000028F9D1012112484C38FCF7F0FA12A0A9
:1046900000F054FE11B000BD0146062901DB0020E8
:1046A00070470C4830F81100002806DA094830F845
:1046B0001100C0F5805080B2F2E7064830F81100D2
:1046C000EEE7000000080140001001400800024031
:1046D0004C24014036040020495453423A2061647E
:1046E0006320696E697469616C697A6174696F6E5F
:1046F000204F4B2021200A001FB504460121084607
:10470000FDF795FD4FF08040FDF772FF04EB84004C
:104710004000401E80B2ADF8080041F61F40ADF8E1
:1047200004000020ADF80A00ADF8060001A94FF022
:104730008040FEF731F801218807FEF74FFE012285
:1047400011469007FEF79FFB01218807FEF780FBCB
:104750004FF4E060FCF78AF91C208DF8000001207E
:104760008DF8010000208DF8020001208DF8030073
:104770006846FCF780F9214642A000F0DFFD1FBD2E
:104780001FB5044601210220FDF751FD4848FDF701
:104790002FFF04EB84004000401E80B2ADF80800FB
:1047A00041F61F40ADF804000020ADF80A00ADF856
:1047B000060001A93E48FDF7EFFF012211463C48E3
:1047C000FEF761FB01213A48FEF742FB4FF4E0603F
:1047D000FCF74CF91D208DF8000002208DF8010037
:1047E00000208DF8020001208DF803006846FCF7D8
:1047F00042F921462FA000F0A1FD1FBD38480178E5
:104800000078401C364A1070052905DD002011464D
:104810000870012033490870704710B501218807DE
:10482000FEF7DFFDA8B101218807FEF7EBFD00F0E0
:104830008BFCFFF73DF92C4801680068401C2A4AB0
:104840001060B1F57A7F04D9002011460860FFF7A7
:10485000D5FF10BD10B501211548FEF7C2FD78B196
:1048600001211348FEF7CEFD2048007880F00100BA
:104870001E4908701E48007880F001001C4908702D
:1048800010BD0000495453423A2074696D6572327C
:1048900020696E697469616C697A6174696F6E20F0
:1048A0006174202564206D73204F4B2021200A0065
:1048B00000040040495453423A2074696D657233D4
:1048C00020696E697469616C697A6174696F6E20C0
:1048D0006174202564206D73204F4B2021200A0035
:1048E0006C00002001000020680000200000002073
:1048F00002000020F0B50246002400232CE05748B7
:10490000007810F0010F01D00020F0BD2046651C9A
:10491000ACB2155C524806880088401C504F388065
:10492000504885553846007800F03F003D462880C5
:104930004A48007820F00200484D2870581C83B285
:1049400038460088484D2D88A84205D14348007854
:1049500040F00100414D28700800A1F10105A9B205
:10496000CDD11846D1E73E4800883F4908803B48F2
:10497000007840F0020039490870704770B502466F
:10498000002400232CE038480088354D2D88A842AB
:104990000CD13248007810F0010F07D12F48007871
:1049A00040F002002D4D2870002070BD2E48058873
:1049B0000088401C2C4E30802A48465D2046651CED
:1049C000ACB216542848007800F03F00264D2880ED
:1049D000581C83B22148007820F001001F4D287038
:1049E0000800A1F10105A9B2CDD11846DDE71E48A6
:1049F00000881B49098888420ED11848007810F0B9
:104A0000010F07D11548007840F0020013490870E3
:104A1000002070474020FCE71148008812490988AF
:104A2000884206DD0E4800880F490988401A80B286
:104A3000EFE70D480088C0F14000094909880844A3
:104A400080B2E6E70146002004E0064A125C0A5400
:104A5000421C90B24028F8DB704700006E00002036
:104A600070000020420400207200002070B505464E
:104A70000E4614464FF40030FFF79EF908B90020A7
:104A800070BD0121A548FDF7F4F8A548FFF782F9AC
:104A900008B90020F4E70022A021A048FDF73FF963
:104AA000A048FFF777F908B90020E9E7310A9B48E9
:104AB000FDF72FF99B48801EFFF76CF908B900201D
:104AC000DEE7F1B29548FDF724F99648801CFFF720
:104AD00061F908B90020D3E701219048FDF7C9F832
:104AE0008F48FFF757F908B90020C9E70122A02134
:104AF0008A48FDF714F98A48401CFFF74BF908B9BA
:104B00000020BDE7012C03DD01218448FDF7C9F831
:104B100013E0012C03D100218048FDF7C2F8804842
:104B20003F30FFF737F908B90020A9E77B48FDF7C8
:104B3000F2F805F8010B601E84B2002CE9D10121C6
:104B40007648FDF7A2F801209AE770B506460C46B4
:104B5000154601E0FFF748F8AAB2A1B23046FFF7C8
:104B600085FF0028F6D070BD10B500BF01216B484D
:104B7000FDF77FF86A48FFF70DF908B9002010BD6E
:104B80000022A0216548FDF7CAF86648FFF702F940
:104B90000028EBD001216148FDF777F80120EEE70E
:104BA00010B501E0FFF720F8FFF7DEFF0028F9D08D
:104BB00010BD70B504460D461646402E01DB0020A0
:104BC00070BD4FF40030FFF7F7F808B90020F7E7A1
:104BD00001215248FDF74DF85148FFF7DBF808B9BD
:104BE0000020EDE70022A0214C48FDF798F84D4841
:104BF000FFF7D0F808B90020E2E7290A4748FDF797
:104C000088F84848801EFFF7C5F808B90020D7E7A4
:104C1000E9B24248FDF77DF84248801EFFF7BAF836
:104C200008B90020CCE70BE021783C48FDF771F88B
:104C30003C48801EFFF7AEF808B90020C0E7641CAE
:104C40003000A6F10101CEB2EED13648801CFFF74C
:104C5000A1F808B90020B3E701213048FDF715F8A5
:104C60000120ADE770B504460D46164601E0FEF79B
:104C7000BBFF324629462046FFF79BFF0028F6D0AF
:104C800070BD2DE9F04107460E46144606F03F0878
:104C9000C8F14005AC4200D2E5B20DE0B1B22A46FF
:104CA0003846FFF7DFFFFFF77BFF2E442F44641BDE
:104CB0004025402C00D2E5B2002DEFDCBDE8F081AC
:104CC00038B56C46012247F6FF712046FFF73DFFDD
:104CD0002078552801D1012038BD552020700122AF
:104CE00047F6FF712046FFF7CCFF012247F6FF7120
:104CF0002046FFF72AFF2078552801D10020EBE756
:104D00000020E9E710B5FFF7DBFF18B106A000F0BF
:104D100015FB02E00EA000F011FB10BD0054004096
:104D20000100030082000700495453423A20617495
:104D300032344332353620696E697469616C697A40
:104D40006174696F6E204F4B2021200A0000000023
:104D5000495453423A206174323443323536206923
:104D60006E697469616C697A6174696F6E204661FD
:104D7000696C65642021200A0000000010B5002441
:104D80004FF48051B148FCF71AFE9020FFF7B6F8B7
:104D90000020FFF7B3F80020FFF7B0F80020FFF77E
:104DA000ADF8FF20FFF7AAF844EA0024FF20FFF740
:104DB000A5F804434FF48051A448FCF7FEFD2046BB
:104DC00010BD08B501210820FDF724FA4FF48050EA
:104DD000ADF8000010208DF8030001208DF80200CE
:104DE00069469A48FCF73EFD4FF480519748FCF71E
:104DF000E4FDFFF7C3FFA0F56F41143903D194A080
:104E000000F09CFA02E09BA000F098FA08BD10B5F3
:104E100000244FF480518D48FCF7D1FD0520FFF7A9
:104E20006DF8FF20FFF76AF804464FF48051874879
:104E3000FCF7C3FD204610BD10B504464FF4805169
:104E40008248FCF7BCFD0520FFF758F82046FFF725
:104E500055F84FF480517D48FCF7AFFD10BD10B5FB
:104E600000BFFFF7D4FF10F0010FFAD110BD10B54D
:104E70004FF480517548FCF7A2FD0620FFF73EF87D
:104E80004FF480517148FCF798FD10BD10B54FF4F8
:104E900080516E48FCF793FD0420FFF72FF84FF484
:104EA00080516A48FCF789FD10BD2DE9F0410646A6
:104EB0000C4617464FF480516448FCF780FD0320F0
:104EC000FFF71CF8C4F30740FFF718F8C4F30720F6
:104ED000FFF714F8E0B2FFF711F8002505E0FF2016
:104EE000FFF70CF87055681C85B2BD42F7DB4FF434
:104EF00080515648FCF761FDBDE8F0812DE9F04195
:104F000006460C461746FFF7B2FF4FF480514F4854
:104F1000FCF755FD0220FEF7F1FFC4F30740FEF752
:104F2000EDFFC4F30720FEF7E9FFE0B2FEF7E6FF6E
:104F3000002504E0705DFEF7E1FF681C85B2BD420C
:104F4000F8DB4FF480514148FCF737FDFFF787FF4E
:104F5000BDE8F08110B5FFF78AFFFFF780FF4FF43F
:104F600080513A48FCF72BFDC720FEF7C7FF4FF4EE
:104F700080513648FCF721FDFFF771FF10BD10B5D9
:104F800004462403FFF773FFFFF769FF4FF48051D6
:104F90002E48FCF714FD2020FEF7B0FFC4F30740B5
:104FA000FEF7ACFFC4F30720FEF7A8FFE0B2FEF760
:104FB000A5FF4FF480512548FCF7FFFCFFF74FFF9A
:104FC00010BD10B50446E403FFF751FFFFF747FF9C
:104FD0004FF480511D48FCF7F2FC5220FEF78EFF83
:104FE000C4F30740FEF78AFFC4F30720FEF786FFED
:104FF000E0B2FEF783FF4FF480511448FCF7DDFC6C
:10500000FFF72DFF10BD10B504462404FFF72FFF56
:10501000FFF725FF4FF480510C48FCF7D0FCD82057
:10502000FEF76CFFC4F30740FEF768FFC4F30720E8
:10503000FEF764FFE0B2FEF761FF4FF480510348D2
:10504000FCF7BBFCFFF70BFF10BD0000000C01409C
:10505000495453423A2077323571313620696E69AE
:105060007469616C697A6174696F6E204F4B20219D
:10507000200A0000495453423A20773235713136C4
:1050800020696E697469616C697A6174696F6E20F8
:105090004661696C65642021200A000010B500F0AB
:1050A00071F84FF46140FFF757F8FEF7B3FEFEF7D3
:1050B000B1FCFEF7E3FCFFF74AF9FEF795FDFFF7B9
:1050C00021FEFEF742FFFFF77CFEFFF739FA4FF4AF
:1050D0006140FEF793FF0120FFF70EFB6420FFF70E
:1050E0004FFB00F017F805E00A224FF47A71012017
:1050F000FEF7D3FC064A111F081FFBF7FDF8002836
:10510000F2D00A224FF47A710120FEF7C6FC10BDDE
:10511000C400002010B57D20FCF755FF08B1FDF755
:10512000B7F845F25550FCF7EBFE0620FCF7EBFE16
:105130000F20FCF7EBFEFCF7ECFEFCF7EFFE642122
:1051400003A000F0FBF810BD10B5FCF7E2FE10BDA7
:10515000495453423A207761746368646F6720282A
:1051600074696D653A25646D732920696E69746987
:10517000616C697A6174696F6E204F4B2021200A3F
:10518000000000004FF0E020006920F004004FF024
:10519000E02108610920234908700846007800EBE7
:1051A0004001C1EBC0104FF6FF7101EAC0001E497B
:1051B0000880704701461C4A12884A434FF0E0239A
:1051C0005A6100229A6101221A6100BF4FF0E02269
:1051D000106910F0010F02D010F4803FF6D00022C9
:1051E0004FF0E0231A6101229A61704701460D4A8F
:1051F00012784A434FF0E0235A6100229A6101225B
:105200001A6100BF4FF0E022106910F0010F02D0C8
:1052100010F4803FF6D000224FF0E0231A619A612B
:1052200070470000740000207600002040EA01036F
:105230009B0703D009E008C9121F08C0042AFAD24C
:1052400003E011F8013B00F8013B521EF9D2704710
:10525000D2B201E000F8012B491EFBD270470022B8
:10526000F6E710B513460A4604461946FFF7F0FF65
:10527000204610BD2DE9F05F0546002092469B4672
:1052800088460646814640241BE02846414647465C
:10529000224600F042F853465A46C01A914110D3B4
:1052A00011461846224600F029F82D1A67EB01082E
:1052B0004F4622460120002100F020F817EB00099C
:1052C0004E41201EA4F10104DFDC484631462A4647
:1052D0004346BDE8F09F0000064C074D06E0E0683D
:1052E00040F0010394E8070098471034AC42F6D32D
:1052F000FAF700FF3C5800085C580008202A04DB3D
:10530000203A00FA02F1002070479140C2F12003D8
:1053100020FA03F3194390407047202A04DB203A17
:1053200021FA02F00021704721FA02F3D040C2F1C5
:105330002002914008431946704700000FB4054B06
:1053400010B503A9044A029800F018F810BC5DF8E3
:1053500014FB0000734200087800002002E008C837
:10536000121F08C1002AFAD170477047002001E0DF
:1053700001C1121F002AFBD1704700002DE9FF4F29
:105380008DB09B460F460446002638E1252801D003
:105390000F9959E00025641C9D49A84601222378F5
:1053A000203B02FA03F0084202D00543641CF6E7F2
:1053B00020782E2817D114F8010F45F004052A286B
:1053C0000ED06FF02F022078A0F1300109290AD801
:1053D00008EB880102EB410100EB0108641CF2E7D5
:1053E00057F8048B641C20786C280DD004DC4C2802
:1053F00012D06A2811D104E074280DD07A280CD17B
:105400000AE045F4001507E0617845F48015814213
:1054100002D1641C05F58015641C2278692A46D0E7
:1054200008DC002A70D0582A69D0632A11D0642A77
:1054300008D13CE0702A69D0732A14D0752A5CD058
:10544000782A5CD00F9910465A46904706F101061B
:10545000D4E017F8040B8DF8000000208DF801004F
:10546000E946012003E057F8049B4FF0FF3069073D
:105470004FF0000501D40AE06D1C45450DDA854268
:10548000FADB19F805100029F6D106E06D1C8542FB
:10549000FCDB19F805100029F8D12E4404E019F8B6
:1054A000010B5A460F9990476D1EF8D2A6E00A20CC
:1054B0000021CDE90801C5F3025002280BD001CF2D
:1054C000C11700290EDA4FF0000CD0EB0C006CEB8A
:1054D00001012D2309E007F1070727F00707F7E887
:1054E0000201EEE72B0504D52B238DF8283001238C
:1054F00030E0EB072ED02023F7E70A2000E0102051
:105500000021CDE9080109E07DE0FFE7102000213E
:1055100045F00405CDE908014FF00808C5F3025035
:1055200002281BD001CF00214FF0000A2B0712D513
:10553000702A19D0DDE908C38CF0100C5CEA030C6A
:1055400009D150EA010306D030238DF828308DF8B8
:10555000292002239A46582A10D00AE0FF1D27F07E
:105560000707F7E80201DFE740228DF828204FF017
:10557000010A28A20DF120090B9209E02AA2F9E7FD
:10558000DDE90823FFF776FE0B9B9B5C09F8013DE4
:1055900050EA0102F4D1ADEB090000F120000890BF
:1055A000680701D44FF001080899884502DDA8EB8F
:1055B000010000E000208046002506E00AA85A46C7
:1055C000405D0F999047761C6D1C5545F6DB04E055
:1055D00030205A460F999047761CB8F10001A8F187
:1055E0000108F5DC05E019F8010B5A460F999047C0
:1055F000761C0899481E08900029F4DC641C207869
:1056000000287FF4C3AE11B03046BDE8F08F000033
:105610000928010030313233343536373839616288
:10562000636465660000000030313233343536374C
:105630003839414243444546000000000000211033
:10564000422063308440A550C660E77008812991EC
:105650004AA16BB18CC1ADD1CEE1EFF13112100294
:1056600073325222B5529442F772D662399318833C
:105670007BB35AA3BDD39CC3FFF3DEE36224433460
:1056800020040114E664C774A44485546AA54BB58C
:1056900028850995EEE5CFF5ACC58DD55336722634
:1056A00011163006D776F6669556B4465BB77AA7DC
:1056B00019973887DFF7FEE79DD7BCC7C448E55880
:1056C0008668A7784008611802282338CCC9EDD92C
:1056D0008EE9AFF9488969990AA92BB9F55AD44AD4
:1056E000B77A966A711A500A333A122AFDDBDCCB7C
:1056F000BFFB9EEB799B588B3BBB1AABA66C877CA0
:10570000E44CC55C222C033C600C411CAEED8FFDCB
:10571000ECCDCDDD2AAD0BBD688D499D977EB66E73
:10572000D55EF44E133E322E511E700E9FFFBEEF1B
:10573000DDDFFCCF1BBF3AAF599F788F8891A981DD
:10574000CAB1EBA10CD12DC14EF16FE18010A100C7
:10575000C230E3200450254046706760B9839893B7
:10576000FBA3DAB33DC31CD37FE35EF3B102901217
:10577000F322D2323542145277625672EAB5CBA583
:10578000A89589856EF54FE52CD50DC5E234C32467
:10579000A01481046674476424540544DBA7FAB757
:1057A0009987B8975FE77EF71DC73CD7D326F236B7
:1057B0009106B01657667676154634564CD96DC9A3
:1057C0000EF92FE9C899E9898AB9ABA94458654807
:1057D00006782768C018E1088238A3287DCB5CDBF7
:1057E0003FEB1EFBF98BD89BBBAB9ABB754A545A57
:1057F000376A167AF10AD01AB32A923A2EFD0FEDC3
:105800006CDD4DCDAABD8BADE89DC98D267C076CA6
:10581000645C454CA23C832CE01CC10C1FEF3EFF96
:105820005DCF7CDF9BAFBABFD98FF89F176E367EF6
:10583000554E745E932EB23ED10EF01E5C58000899
:10584000000000207C0000005C530008D8580008CD
:105850007C0000200C0800006C53000800000000D1
:105860000000000104000000000000000000000033
:105870000000000000000000000000000000000028
:10588000000000000000000000000001020304010D
:1058900002030406070809020406080000A24A04DD
:1058A00000000000000000000102030406070809D0
:1058B000673A0008673A0008020000000000000094
:1058C00000000000000000000000000000000000D8
:0858D0000000000000000000D0
:04000005080000ED02
:00000001FF
